:100000000C9463000C948B000C948B000C948B006C
:100010000C948B000C948B000C948B000C940205B8
:100020000C948B000C948B000C948B000C948B0024
:100030000C948B000C948B000C948B000C948B0014
:100040000C94B8040C948B000C9484050C945E05FD
:100050000C948B000C948B000C948B000C948B00F4
:100060000C948B000C948B000000000023002600F1
:10007000290000000000240027002A0000000008DA
:10008000000201000003040700000000000000005F
:10009000010204081020408001020408102001021F
:1000A0000408102000000000250028002B00040494
:1000B0000404040404040202020202020303030310
:1000C00003030200EB0711241FBECFEFD8E0DEBF11
:1000D000CDBF11E0A0E0B1E0E8E5F3E102C005909A
:1000E0000D92A434B107D9F721E0A4E4B1E001C036
:1000F0001D92AB3FB207E1F710E0C3E6D0E004C0C9
:100100002197FE010E94A409C236D107C9F70E94B7
:10011000FB050C94AA090C94000090E0FC01E45843
:10012000FF4F2491FC01E057FF4F3491FC01E25551
:10013000FF4FE491EE23C9F0222339F0233001F17F
:10014000A8F4213019F1223029F1F0E0EE0FFF1F61
:10015000EC55FF4FA591B4918FB7F894EC916111D4
:1001600026C030953E233C938FBF08952730A9F0D9
:100170002830C9F0243049F7809180008F7D03C07A
:10018000809180008F7780938000DFCF84B58F7758
:1001900084BDDBCF84B58F7DFBCF8091B0008F779E
:1001A0008093B000D2CF8091B0008F7DF9CF3E2BED
:1001B000DACFCF93DF9390E0FC01E057FF4F24911B
:1001C00082559F4FFC0184918823D1F090E0880FE5
:1001D000991FFC01EE58FF4FA591B491FC01EC551D
:1001E000FF4FC591D49161110EC09FB7F8948C91C7
:1001F000E22FE0958E238C932881E223E8839FBF32
:10020000DF91CF9108958FB7F894EC91E22BEC93A6
:100210008FBFF6CF4F925F926F927F928F929F9295
:10022000AF92BF92CF92DF92EF92FF920F931F9304
:10023000CF938C016A017B0180910001863099F097
:100240008F3F09F45CC0CF911F910F91FF90EF9009
:10025000DF90CF90BF90AF909F908F907F906F90E6
:100260005F904F900895E2ECF0E0C491C7FDEBCFB2
:1002700061E086E00E94D9002801712C612CCC231A
:10028000F1F0980150E040E0C23009F0A7C0280129
:100290003A0160E970ED83E090E00E94180849019E
:1002A0005A0181E0881A9108A108B10893E08FEF04
:1002B00088169104A104B10409F00CF4DDC068E4CF
:1002C00078EE81E090E0A30192010E9418084901B4
:1002D0005A0181E0881A9108A108B10894E0C1117F
:1002E000CBC085B5887F836085BD2FEF3FEFA90127
:1002F000C114D104E104F10409F4D2C08DC086E038
:1003000080930001E2ECF0E0C491CF3F09F49BCF71
:10031000C13021F150F0C23009F43EC0C7FD93CF87
:1003200061E086E00E94D900ACCF14BC15BC84B556
:10033000826084BD85B5816085BDE4EBF0E0E49129
:10034000F0E0EE0FFF1FEC55FF4F85919491E6E929
:10035000F0E0E491E093EE01C0E08ACF10928000DB
:10036000109281008091810088608093810080914B
:100370008100816080938100E4EBF0E0E491F0E0A3
:10038000EE0FFF1FEC55FF4F85919491E6E9F0E0E9
:10039000E491E093ED016CCF1092B0001092B100A7
:1003A0008091B00082608093B0008091B100816044
:1003B0008093B100E4EBF0E0E491F0E0EE0FFF1F7A
:1003C000EC55FF4F859194919093EC018093EB0154
:1003D000E6E9F0E0E491E093EA014ACF60E072E1FF
:1003E0008AE790E00E94180849015A0181E0881AC2
:1003F0009108A108B108C13009F044C08091810082
:10040000887F8160809381002FEF3FEFA901C114A5
:10041000D104E104F10471F0D801AA0FBB1FA701B8
:1004200096010E94370828EE33E040E050E00E9439
:10043000420830C090928900809288002093F30196
:100440003093F4014093F5015093F60180916F00D1
:10045000826080936F00F7CE8092B3002093EF010B
:100460003093F0014093F1015093F20180917000BC
:10047000826080937000E7CE8091B100887F892BE5
:100480008093B1002FEF3FEFA901C114D104E10423
:10049000F10411F6C13071F2C230F1F2C111D3CEC4
:1004A00087BC2093F7013093F8014093F9015093F2
:1004B000FA0180916E00826080936E00C4CE3FB7D7
:1004C000F8948091490190914A01A0914B01B0911B
:1004D0004C0126B5A89B05C02F3F19F00196A11D20
:1004E000B11D3FBFBA2FA92F982F8827BC01CD017E
:1004F000620F711D811D911D42E0660F771F881FDD
:10050000991F4A95D1F708958F929F92AF92BF920B
:10051000CF92DF92EF92FF924B015C010E945F024B
:100520006B017C010E945F026C197D098E099F0995
:10053000683E734081059105A8F321E0821A910875
:10054000A108B10888EEC80E83E0D81EE11CF11C9A
:1005500081149104A104B10429F7FF90EF90DF907A
:10056000CF90BF90AF909F908F9008959091000191
:1005700089130BC0E2ECF0E0E4919FEF909300014F
:10058000E13049F028F0E23061F060E00C948D0039
:1005900010926E00FACF90916F009D7F90936F0044
:1005A000F4CF909170009D7F9093700091E09093B4
:1005B000B0009091B100987F94609093B100109238
:1005C000B300E3CFAF92BF92CF92DF92EF92FF9250
:1005D0000F931F93CF93DF936C017B018B01040F6B
:1005E000151FEB015E01AE18BF08C017D10759F007
:1005F0006991D601ED91FC910190F081E02DC60149
:100600000995892B79F7C501DF91CF911F910F9142
:10061000FF90EF90DF90CF90BF90AF900895FC01D6
:10062000538D448D252F30E0842F90E0821B930B57
:10063000541710F0CF96089501970895FC01918DFD
:10064000828D981761F0A28DAE0FBF2FB11D5D9600
:100650008C91928D9F5F9F73928F90E008958FEFA2
:100660009FEF0895FC01918D828D981731F0828D56
:10067000E80FF11D858D90E008958FEF9FEF0895AD
:10068000FC01918D228D892F90E0805C9F4F821B11
:1006900091098F73992708958DE491E00E9440039A
:1006A00021E0892B09F420E0822F089580E090E07A
:1006B000892B29F00E944C0381110C9400000895AD
:1006C000FC01A48DA80FB92FB11DA35ABF4F2C91C7
:1006D000848D90E001968F739927848FA689B789BE
:1006E0002C93A089B1898C91837080648C93938DB5
:1006F000848D981306C00288F389E02D80818F7D58
:1007000080830895EF92FF920F931F93CF93DF930F
:10071000EC0181E0888F9B8D8C8D98131AC0E8893D
:10072000F989808185FF15C09FB7F894EE89FF890C
:100730006083E889F98980818370806480839FBFAA
:1007400081E090E0DF91CF911F910F91FF90EF90AA
:100750000895F62E0B8D10E00F5F1F4F0F731127BA
:10076000E02E8C8D8E110CC00FB607FCFACFE889F5
:10077000F989808185FFF5CFCE010E946003F1CF1A
:10078000EB8DEC0FFD2FF11DE35AFF4FF0829FB769
:10079000F8940B8FEA89FB8980818062CFCFCF9359
:1007A000DF93EC01888D8823B9F0AA89BB89E88999
:1007B000F9898C9185FD03C0808186FD0DC00FB63F
:1007C00007FCF7CF8C9185FFF2CF808185FFEDCFBD
:1007D000CE010E946003E9CFDF91CF910895FC0123
:1007E00001900020E9F73197AF01481B590BBC017C
:1007F0008DE491E00C94E2028F929F92AF92BF92AF
:100800000F931F93CF93DF93CDB7DEB7A1970FB6AA
:10081000F894DEBF0FBECDBF19A2423008F44AE003
:100820008E010F5D1F4F842E912CB12CA12CA501A0
:1008300094010E944208E62FB901CA01EA30F4F49B
:10084000E05DD801EE938D01232B242B252B79F726
:1008500090E080E0109719F0CD010E94EF03A1967F
:100860000FB6F894DEBF0FBECDBFDF91CF911F91C1
:100870000F91BF90AF909F908F900895E95CE1CF6A
:10088000CF92DF92EF92FF92CF93DF936B017C01C7
:100890006DE28DE491E00E948203EC0166277727E8
:1008A000CB016C197D098E099F094AE00E94FC0367
:1008B0008C0F9D1FDF91CF91FF90EF90DF90CF9035
:1008C00008950F931F93CF93DF93182FEB0160E0F0
:1008D0000E948D0083E090E00197F1F761E0812FA5
:1008E0000E948D0083E290E00197F1F760E0812F94
:1008F0000E948D00FE01E057FF4F6491FE01E2551A
:10090000FF4FE491F0E0EE0FFF1FE859FF4F859194
:10091000949100E315E720E030E0462F0E94B605F1
:10092000611571058105910529F06F5F7F4F8F4F2C
:100930009F4F9F700E94AB0826E933E44BE05DE3D4
:100940000E940F0920E030E040E05FE30E940F09C1
:100950000E947308611571058105910521F467EE08
:1009600073E080E090E0DF91CF911F910F910895A7
:100970001F920F920FB60F9211242F933F938F93D4
:100980009F93AF93BF938091450190914601A091B1
:100990004701B09148013091440123E0230F2D37E6
:1009A00058F50196A11DB11D209344018093450186
:1009B00090934601A0934701B0934801809149016B
:1009C00090914A01A0914B01B0914C010196A11D5B
:1009D000B11D8093490190934A01A0934B01B093BC
:1009E0004C01BF91AF919F918F913F912F910F90AB
:1009F0000FBE0F901F90189526E8230F0296A11D99
:100A0000B11DD2CF1F920F920FB60F9211242F93C8
:100A10003F934F935F936F937F938F939F93AF9386
:100A2000BF93EF93FF938091EF019091F001A0911C
:100A3000F101B091F201892B8A2B8B2BD1F190918E
:100A4000EA01E091EB01F091EC018081892780833C
:100A50008091EF019091F001A091F101B091F2012C
:100A6000181619061A061B069CF48091EF01909146
:100A7000F001A091F101B091F2010197A109B10932
:100A80008093EF019093F001A093F101B093F201F4
:100A9000FF91EF91BF91AF919F918F917F916F9156
:100AA0005F914F913F912F910F900FBE0F901F902C
:100AB0001895809100010E94B602EACF1F920F9212
:100AC0000FB60F9211242F933F934F935F936F9321
:100AD0007F938F939F93AF93BF93EF93FF938DE497
:100AE00091E00E946003FF91EF91BF91AF919F91C0
:100AF0008F917F916F915F914F913F912F910F90C7
:100B00000FBE0F901F9018951F920F920FB60F9265
:100B100011242F938F939F93EF93FF93E0915D01A7
:100B2000F0915E018081E0916301F091640182FDAA
:100B30001BC09081809166018F5F8F732091670148
:100B4000821741F0E0916601F0E0E35BFE4F958F84
:100B500080936601FF91EF919F918F912F910F905C
:100B60000FBE0F901F9018958081F4CFCF92DF9227
:100B7000EF92FF920F931F93E82FF92F05C00150BA
:100B800011092109310961F1908196239417B9F374
:100B900005C0015011092109310911F190819623F5
:100BA0009413F7CFC12CD12CE12CF12C0AC08FEF7C
:100BB000C81AD80AE80AF80A0C151D052E053F05C3
:100BC00079F080818623841791F36C2D7D2D8E2DF5
:100BD0009F2D1F910F91FF90EF90DF90CF90089580
:100BE00060E070E080E090E01F910F91FF90EF9047
:100BF000DF90CF900895789484B5826084BD84B5E9
:100C0000816084BD85B5826085BD85B5816085BD07
:100C100080916E00816080936E00109281008091BF
:100C20008100826080938100809181008160809347
:100C30008100809180008160809380008091B1006C
:100C400084608093B1008091B00081608093B00097
:100C500080917A00846080937A0080917A0082602B
:100C600080937A0080917A00816080937A008091ED
:100C70007A00806880937A001092C10061E08DE074
:100C80000E94D90060E08CE00E94D90061E08BE016
:100C90000E94D90060E08AE00E94D90061E086E00D
:100CA0000E94D90061E085E00E94D90060E085E003
:100CB0000E948D0060E086E00E948D00E0915D0161
:100CC000F0915E0182E08083E0915901F0915A0138
:100CD0001082E0915B01F0915C018FEC80831092B7
:100CE0006501E0916101F091620186E08083E0910D
:100CF0005F01F0916001808180618083E0915F01FC
:100D0000F0916001808188608083E0915F01F091C3
:100D10006001808180688083E0915F01F0916001D3
:100D200080818F7D808393E0892E912CA12CB12C22
:100D300020E0222E20E0322EC3E0D0E0C12CD12CC6
:100D400076016CE070E08DE090E00E946104C60ED8
:100D5000D71EE81EF91E6AE070E080E090E00E9475
:100D60008402219771F7C701B601A50194010E9481
:100D7000180869017A01C3E0D0E0412C512C3201FE
:100D80006AE070E08BE090E00E946104460E571E1E
:100D9000681E791E6AE070E080E090E00E948402A4
:100DA000219771F7C301B201A50194010E941808AF
:100DB00029013A0183E191E00E94EF03F7FE2DC083
:100DC000C701B6010E94400484E291E00E94EF0353
:100DD0008AE291E00E94EF038DE291E00E94EF032E
:100DE00077FE21C0C301B2010E9440048FE391E06D
:100DF0000E94EF038AE291E00E94EF038AE1481625
:100E0000510461047104ACF040E050E0BA0188EE96
:100E100093E00E940A0160E07CC04AE0C701B6018D
:100E20000E94FC03D1CF4AE0C301B2010E94FC033F
:100E3000DDCFE2E3CE16D104E104F1040CF0C3C02F
:100E4000F4E1CF16D104E104F104F4F08EE1C81608
:100E5000D104E104F1040CF460C0C2E0D0E0E8E2A7
:100E6000CE16D104E104F1048CF044E650E060E0D9
:100E700070E08CEB92E00E940A0166E970E080E08D
:100E800090E00E94840217C0C4E0D0E010E000E0CF
:100E900044E650E060E070E08CEB92E00E940A01D2
:100EA00066E970E080E090E00E9484020F5F1F4FCF
:100EB0000C171D0769F786E00E94B602F4E1CF1611
:100EC000D104E104F1042CF484E1C82ED12CE12CEE
:100ED000F12CA70196012253310941095109A3ECD4
:100EE000B0E00E94370822EE3FEF4FEF5FEF0E9425
:100EF000180869017A018CE3C80ED11CE11CF11CB1
:100F0000E60161E085E00E94D900CF3FD10541F4C0
:100F100061E085E00E948D0025C0C3E0D0E0B6CF3F
:100F2000E1E8F0E084918330A1F140F48130B1F048
:100F3000823051F1C038D1055CF76DCF873099F11F
:100F40008830C9F18430B1F780918000806280934D
:100F50008000D0928B00C0928A0004C084B5806863
:100F600084BDC7BC62E370E080E090E00E94840230
:100F70002114310409F4E0CE0E944C03882309F4C3
:100F8000DBCE0E940000D8CE84B5806284BDC8BC90
:100F9000E9CF80918000806880938000D0928900A2
:100FA000C0928800DFCF8091B00080688093B0004D
:100FB000C092B300D7CF8091B00080628093B00020
:100FC000C092B400CFCF86E00E94B60261E085E017
:100FD0000E94D90020CFEDE4F1E01382128288EE66
:100FE00093E0A0E0B0E084839583A683B78385E097
:100FF00091E09183808385EC90E09587848784ECF1
:1010000090E09787868780EC90E0918B808B81ECD5
:1010100090E0938B828B82EC90E0958B848B86ECB6
:1010200090E0978B868B118E128E138E148E0895FE
:10103000052E97FB1EF400940E942F0857FD07D041
:101040000E94420807FC03D04EF40C942F085095E0
:101050004095309521953F4F4F4F5F4F08959095A4
:101060008095709561957F4F8F4F9F4F08950E9497
:101070006408A59F900DB49F900DA49F800D911DB5
:1010800011240895A1E21A2EAA1BBB1BFD010DC05D
:10109000AA1FBB1FEE1FFF1FA217B307E407F50728
:1010A00020F0A21BB30BE40BF50B661F771F881F04
:1010B000991F1A9469F760957095809590959B019A
:1010C000AC01BD01CF010895A29FB001B39FC00143
:1010D000A39F700D811D1124911DB29F700D811D64
:1010E0001124911D08950E947A086894B1110C94FE
:1010F000090908950E94EE0888F09F5798F0B92FCB
:101100009927B751B0F0E1F0660F771F881F991F3C
:101110001AF0BA95C9F714C0B13091F00E940809CD
:10112000B1E008950C940809672F782F8827B85FDD
:1011300039F0B93FCCF3869577956795B395D9F794
:101140003EF490958095709561957F4F8F4F9F4F9E
:101150000895E89409C097FB3EF4909580957095AA
:1011600061957F4F8F4F9F4F9923A9F0F92F96E9F3
:10117000BB279395F695879577956795B795F11168
:10118000F8CFFAF4BB0F11F460FF1BC06F5F7F4F05
:101190008F4F9F4F16C0882311F096E911C0772317
:1011A00021F09EE8872F762F05C0662371F096E820
:1011B000862F70E060E02AF09A95660F771F881FEF
:1011C000DAF7880F9695879597F9089557FD905807
:1011D000440F551F59F05F3F71F04795880F97FBFB
:1011E000991F61F09F3F79F08795089512161306B5
:1011F0001406551FF2CF4695F1DF08C016161706E4
:101200001806991FF1CF8695710561050894089518
:10121000E894BB2766277727CB0197F908950E94AA
:1012200022090C9493090E94850938F00E948C09C8
:1012300020F0952311F00C947C090C948209112460
:101240000C9409090E94E60870F3959FC1F3950F6D
:1012500050E0551F629FF001729FBB27F00DB11D3A
:10126000639FAA27F00DB11DAA1F649F6627B00DCA
:10127000A11D661F829F2227B00DA11D621F739FB3
:10128000B00DA11D621F839FA00D611D221F749FC1
:101290003327A00D611D231F849F600D211D822F08
:1012A000762F6A2F11249F5750409AF0F1F088232F
:1012B0004AF0EE0FFF1FBB1F661F771F881F91505C
:1012C0005040A9F79E3F510580F00C947C090C9486
:1012D00009095F3FE4F3983ED4F3869577956795C7
:1012E000B795F795E7959F5FC1F7FE2B880F911D86
:1012F0009695879597F9089597F99F6780E870E02C
:1013000060E008959FEF80EC089500240A9416167B
:10131000170618060906089500240A9412161306E3
:10132000140605060895092E0394000C11F4882371
:1013300052F0BB0F40F4BF2B11F460FF04C06F5F8D
:101340007F4F8F4F9F4F0895EE0FFF1F0590F49131
:08135000E02D0994F894FFCF91
:10135800FF000000008203E2020F03CF0340031ED8
:1013680003320346726F6E742044697374616E634E
:10137800653A200020636D2C20000D0A00426F742E
:10138800746F6D2044697374616E63653A20002040
:04139800636D000081
:00000001FF
